:08000000803102288731FD2F39
:100EAA00F801F901FA01FB01FC01FD01F201F3016C
:100EBA00F401F501F601F701FC3021009905190842
:100ECA008739703899000E308C0023008C01FE306F
:100EDA00F8000030F9003730FA000030FB00FC015E
:100EEA00FD0120000C148C160C167308803AF000D1
:100EFA007908803A7002031D842F78087202031859
:100F0A008B2F0130F2070030F33DA52F031020008C
:100F1A000C1C0314031C942F20000C14962F200081
:100F2A000C107809F0007909F100F00A0319F10AA6
:100F3A007008FE3EF8000030713DF900F201F3013D
:100F4A007508803AF0007B08803A7002031DAF2FC3
:100F5A007A0874020318B62F0130F4070030F53D01
:100F6A00D02F031020000C1E0314031CBF2F2000D7
:100F7A000C16C12F20000C127A09F0007B09F1002F
:100F8A00F00A0319F10A7008FE3EFA000030713DBA
:100F9A00FB00F401F5017708803AF0007D08803AF9
:100FAA007002031DDA2F7C0876020318E12F013044
:100FBA00F6070030F73D7A2F031020008C1E031429
:100FCA00031CEA2F20008C16EC2F20008C127C09BF
:100FDA00F0007D09F100F00A0319F10A7008FE3EDB
:100FEA00FC000030713DFD00F601F7017A2FFC2F5D
:060FFA0020008731552F95
:020000040001F9
:04000E00C4C9FFFF63
:00000001FF
