:0400000080313828EB
:100008007E14803120007F08F100911D3128911164
:100018002400141A3128941A162815162000911D48
:10002800122891112400941E0C281108F00074085D
:100038002C3E860087017008810015160130F407F0
:100048000030F53D033074067504031D2D28F401B6
:10005800F501200091190B282D28F401F5017108EC
:100068002000FF007E10090080313A28F401F501D4
:10007800AC01AD01AE017E10200080314328200084
:10008800A601A701A801A901AA01AB01A001A1012C
:10009800A201A301A401A501FC30210099051908BA
:1000A8008739703899000E308C0023008C012400A9
:1000B80014171508F03906389500961716141713F3
:1000C8001712A2309200210091152000910192018F
:1000D8000B172400951620000C148C160C162C08EF
:1000E800F200F3017208A6007308A7002D08F200B9
:1000F800F3017208A8007308A9002E08F200F301A2
:100108007208AA007308AB002108803AF200270899
:10011800803A7202031D92282608200203189A28A2
:1001280001302000A0070030A13DB42803102000B2
:100138000C1C0314031CA32820000C14A528200061
:100148000C102609F2002709F300F20A0319F30A32
:100158007208FE3EA6000030733DA700A001A10171
:100168002308803AF2002908803A7202031DBE284B
:10017800280822020318C62801302000A2070030F0
:10018800A33DE028031020000C1E0314031CCF28F5
:1001980020000C16D12820000C122809F200290989
:1001A800F300F20A0319F30A7208FE3EA8000030B1
:1001B800733DA900A201A3012508803AF2002B088B
:1001C800803A7202031DEA282A0824020318F2283A
:1001D80001302000A4070030A53D7328031020003B
:1001E8008C1E0314031CFB2820008C16FD282000FD
:1001F8008C122A09F2002B09F300F20A0319F30AF8
:100208007208FE3EAA000030733DAB00A401A501B0
:0402180073280D2911
:020000040001F9
:04000E00C4C9FFFF63
:00000001FF
