:0400000080313528EE
:100008007E14803120007F08F600911D3028911160
:100018002400941A18281108F400F5017408F00057
:100028007508F10015162E28941E30281108F400C2
:1000380072082C3E8600870174088100151601306D
:10004800F2070030F33D033072067304031D2E28B7
:10005800F201F3011513951376082000FF007E10B6
:10006800090080313728F001F101F201F301AC01F8
:10007800AD01AE017E102000803142282000A00191
:10008800A101A201A301A401A501A601A701A8013C
:10009800A901AA01AB01FC3021009905190887398B
:1000A800703899000E308C0023008C01240014173E
:1000B8001508F039063895009617161417131712F5
:1000C80020309200210091158B170B1724009516EC
:1000D80020000C148C160C162708803AF700803084
:1000E8007702031D79282C0826020318812801307D
:1000F8002000A6070030A73D9428031020000C1C00
:100108000314031C8A2820000C148C2820000C10CF
:100118002C03FF3AFE3EF7007708AC00A601A701C2
:100128002908803AF70080307702031D9D282D08A2
:1001380028020318A52801302000A8070030A93D8F
:10014800B828031020000C1E0314031CAE2820003E
:100158000C16B02820000C122D03FF3AFE3EF700C3
:100168007708AD00A801A9012B08803AF700803074
:100178007702031DC1282E082A020318C928013056
:100188002000AA070030AB3D7028031020008C1E09
:100198000314031CD22820008C16D42820008C12AB
:1001A8002E03FF3AFE3EF7007708AE00AA01AB0126
:0401B8007028DD28A6
:020000040001F9
:04000E00C4C9FFFF63
:00000001FF
