:0400000080315728CC
:100008007E14803120007F08FB00911D5228911139
:100018002400941A18281108F900FA017908200018
:10002800A2007A08A3004E28941E52281108F9004D
:100038007308703E86008701790881002C2820000B
:100048000C103C2820000C123C2820008C123C2864
:100058007408003A031931283C287308003A031938
:100068002328013A03192628033A031929283C288A
:100078000130F3070030F43D033073067404031DA8
:100088004728F301F401F701F801F501F601200012
:10009800A001A10124001516151395137B08200053
:1000A800FF007E10090080315928F001F101F201AA
:1000B800F301F401F501F601F701F801A001A1012E
:1000C800A201A3017E10200080316A28FC302100A3
:1000D800990519088739703899000E308C0023006B
:1000E8008C01240014171508F03906389500961766
:1000F80016141713171220309200210091158B1730
:100108000B172400951620000C148C160C16780872
:10011800803AA40080302402031D942870087702D6
:1001280003189B280130F7070030F83DA928031071
:1001380020000C1C0314031CA42820000C14A6285F
:1001480020000C10F009F701F8017608803A200029
:10015800A40080302402031DB32871087502031817
:10016800BA280130F5070030F63DCB2803102000EF
:100178000C1E0314031CC32820000C16C5282000DD
:100188000C127109A4002408F100F501F601200001
:100198002108803AA40080302402031DD528720863
:1001A80020020318DD2801302000A0070030A13DFF
:1001B8008B28031020008C1E0314031CE628200043
:1001C8008C16E82820008C127209A4002408F2007A
:0801D800A001A1018B28EF2812
:020000040001F9
:04000E00C4C9FFFF63
:00000001FF
