:0400000080315728CC
:100008007E14803120007F08F600911D522891113E
:100018002400941A18281108F400F5017408200027
:10002800A7007508A8004E28941E52281108F4004D
:100038007208203E86008701740881002C28200061
:100048000C103C2820000C123C2820008C123C2864
:100058007308003A031931283C287208003A03193A
:100068002328013A03192628033A031929283C288A
:100078000130F2070030F33D033072067304031DAC
:100088004728F201F301F001F1012000A501A601C2
:10009800A301A40124001516151395137608200052
:1000A800FF007E10090080315928F001F101F201AA
:1000B800F301A001A101A201A301A401A501A601C8
:1000C800A701A8017E10200080316A282000A9011C
:1000D800AA01AB01AC01AD01AE01FC3021009905CC
:1000E80019088739703899000E308C0023008C016C
:1000F800240014171508F0390638950096171614B9
:100108001713171220309200210091158B170B1727
:100118002400951620000C148C160C167108803AD1
:10012800F70080307702031D9B282008700203180F
:10013800A2280130F0070030F13DB028031020005C
:100148000C1C0314031CAB2820000C14AD28200041
:100158000C10A009F001F10120002608803AF700F0
:1001680080307702031DBA28210825020318C22807
:1001780001302000A5070030A63DD3280310200039
:100188000C1E0314031CCB2820000C16CD282000BD
:100198000C122109F7007708A100A501A60124087F
:1001A800803AF70080307702031DDC2822082302FA
:1001B8000318E42801302000A3070030A43D92284A
:1001C800031020008C1E0314031CED2820008C163D
:1001D800EF2820008C122209F7007708A200A3015B
:0601E800A4019228F62894
:020000040001F9
:04000E00C4C9FFFF63
:00000001FF
